{
  "_format": "hh-sol-artifact-1",
  "contractName": "FHEPrivateWallet",
  "sourceName": "contracts/FHEPrivateWallet.sol",
  "abi": [
    {
      "inputs": [],
      "name": "ZamaProtocolUnsupported",
      "type": "error"
    },
    {
      "anonymous": false,
      "inputs": [
        {
          "indexed": true,
          "internalType": "address",
          "name": "user",
          "type": "address"
        },
        {
          "indexed": false,
          "internalType": "euint64",
          "name": "newEncryptedBalance",
          "type": "bytes32"
        }
      ],
      "name": "Deposited",
      "type": "event"
    },
    {
      "anonymous": false,
      "inputs": [
        {
          "indexed": true,
          "internalType": "address",
          "name": "user",
          "type": "address"
        },
        {
          "indexed": true,
          "internalType": "address",
          "name": "to",
          "type": "address"
        },
        {
          "indexed": false,
          "internalType": "euint64",
          "name": "encryptedAmount",
          "type": "bytes32"
        }
      ],
      "name": "PrivatePaymentPlanned",
      "type": "event"
    },
    {
      "inputs": [],
      "name": "confidentialProtocolId",
      "outputs": [
        {
          "internalType": "uint256",
          "name": "",
          "type": "uint256"
        }
      ],
      "stateMutability": "view",
      "type": "function"
    },
    {
      "inputs": [
        {
          "internalType": "externalEuint64",
          "name": "encryptedAmount",
          "type": "bytes32"
        },
        {
          "internalType": "bytes",
          "name": "inputProof",
          "type": "bytes"
        }
      ],
      "name": "deposit",
      "outputs": [],
      "stateMutability": "nonpayable",
      "type": "function"
    },
    {
      "inputs": [
        {
          "internalType": "address",
          "name": "user",
          "type": "address"
        }
      ],
      "name": "getEncryptedBalance",
      "outputs": [
        {
          "internalType": "euint64",
          "name": "",
          "type": "bytes32"
        }
      ],
      "stateMutability": "view",
      "type": "function"
    },
    {
      "inputs": [],
      "name": "getMyEncryptedBalance",
      "outputs": [
        {
          "internalType": "euint64",
          "name": "",
          "type": "bytes32"
        }
      ],
      "stateMutability": "view",
      "type": "function"
    },
    {
      "inputs": [
        {
          "internalType": "address",
          "name": "to",
          "type": "address"
        },
        {
          "internalType": "externalEuint64",
          "name": "encryptedAmount",
          "type": "bytes32"
        },
        {
          "internalType": "bytes",
          "name": "inputProof",
          "type": "bytes"
        }
      ],
      "name": "privatePay",
      "outputs": [],
      "stateMutability": "nonpayable",
      "type": "function"
    }
  ],
  "bytecode": "0x608060405234801561000f575f5ffd5b506100c461001b6100c9565b80517f9e7b61f58c47dc699ac88507c4f5bb9f121c03808c5676a8078fe583e464970080546001600160a01b03199081166001600160a01b039384161790915560208301517f9e7b61f58c47dc699ac88507c4f5bb9f121c03808c5676a8078fe583e46497018054831691841691909117905560408301517f9e7b61f58c47dc699ac88507c4f5bb9f121c03808c5676a8078fe583e46497028054909216921691909117905550565b610238565b604080516060810182525f808252602082018190529181019190915246600103610122575060408051606080820183525f8083526020808401829052928401819052835191820184528082529181018290529182015290565b4662aa36a7036101a1575060408051606080820183525f8083526020808401829052928401528251908101835273f0ffdc93b7e186bc2f8cb3daa75d86d1930a433d81527392c920834ec8941d2c77d188936e1f7a6f49c1279181019190915273be0e383937d564d7ff0bc3b46c51f0bf8d5c311a9181019190915290565b46617a690361021f575060408051606080820183525f8083526020808401829052928401528251908101835273f0ffdc93b7e186bc2f8cb3daa75d86d1930a433d81527392c920834ec8941d2c77d188936e1f7a6f49c1279181019190915273be0e383937d564d7ff0bc3b46c51f0bf8d5c311a9181019190915290565b6040516373cac13b60e01b815260040160405180910390fd5b610b12806102455f395ff3fe608060405234801561000f575f5ffd5b5060043610610064575f3560e01c8063b31f2cbf1161004d578063b31f2cbf146100aa578063e10797f6146100bf578063e29973fc146100d3575f5ffd5b8063402dc4e4146100685780638927b030146100a2575b5f5ffd5b61009061007636600461096d565b6001600160a01b03165f9081526020819052604090205490565b60405190815260200160405180910390f35b6100906100e6565b6100bd6100b83660046109cb565b6100f4565b005b335f90815260208190526040902054610090565b6100bd6100e1366004610a21565b6101fc565b5f6100ef6102bd565b905090565b5f6101348484848080601f0160208091040260200160405190810160405280939291908181526020018383808284375f920191909152506102f192505050565b335f9081526020819052604081205491925090610152908390610305565b90505f61015e5f610333565b90505f61016c83858461034f565b335f90815260208190526040812054919250906101899083610396565b335f90815260208190526040902081905590506101a5816103c4565b506101b081336103d3565b506040518581526001600160a01b038a169033907f0d580b762828986ff8ce0805a296a282b03988dd1b6b508c702c9c41421bdb3b9060200160405180910390a3505050505050505050565b5f61023c8484848080601f0160208091040260200160405190810160405280939291908181526020018383808284375f920191909152506102f192505050565b335f908152602081905260408120549192509061025990836103e5565b335f9081526020819052604090208190559050610275816103c4565b5061028081336103d3565b5060405181815233907f07c395f9699f5c4d4e90df65ab0ea5d135089f597219b61c81445b8785c75b589060200160405180910390a25050505050565b5f466001036102cc5750600190565b4662aa36a7036102dd575061271190565b46617a69036102ec57505f1990565b505f90565b5f6102fe83836005610413565b9392505050565b5f82610317576103145f610333565b92505b81610328576103255f610333565b91505b6102fe83835f610533565b5f6103498267ffffffffffffffff166005610616565b92915050565b5f836103615761035e5f6106cb565b93505b826103725761036f5f610333565b92505b81610383576103805f610333565b91505b61038e8484846106e6565b949350505050565b5f826103a8576103a55f610333565b92505b816103b9576103b65f610333565b91505b6102fe83835f61078f565b5f6103cf823061082c565b5090565b5f6103de838361082c565b5090919050565b5f826103f7576103f45f610333565b92505b81610408576104055f610333565b91505b6102fe83835f6108b5565b7f9e7b61f58c47dc699ac88507c4f5bb9f121c03808c5676a8078fe583e46497015460405163045fc19560e11b81525f917f9e7b61f58c47dc699ac88507c4f5bb9f121c03808c5676a8078fe583e4649700916001600160a01b03909116906308bf832a9061048c908890339089908990600401610a89565b6020604051808303815f875af11580156104a8573d5f5f3e3d5ffd5b505050506040513d601f19601f820116820180604052508101906104cc9190610ada565b8154604051630f8e573b60e21b8152600481018390523360248201529193506001600160a01b031690633e395cec906044015f604051808303815f87803b158015610515575f5ffd5b505af1158015610527573d5f5f3e3d5ffd5b50505050509392505050565b5f5f82156105465750600160f81b610549565b505f5b7f9e7b61f58c47dc699ac88507c4f5bb9f121c03808c5676a8078fe583e464970154604051631d44e90160e21b815260048101879052602481018690526001600160f81b0319831660448201527f9e7b61f58c47dc699ac88507c4f5bb9f121c03808c5676a8078fe583e4649700916001600160a01b031690637513a404906064015b6020604051808303815f875af11580156105e8573d5f5f3e3d5ffd5b505050506040513d601f19601f8201168201806040525081019061060c9190610ada565b9695505050505050565b7f9e7b61f58c47dc699ac88507c4f5bb9f121c03808c5676a8078fe583e464970154604051639cd07acb60e01b81525f917f9e7b61f58c47dc699ac88507c4f5bb9f121c03808c5676a8078fe583e4649700916001600160a01b0390911690639cd07acb9061068b9087908790600401610af1565b6020604051808303815f875af11580156106a7573d5f5f3e3d5ffd5b505050506040513d601f19601f8201168201806040525081019061038e9190610ada565b5f610349826106da575f6106dd565b60015b60ff165f610616565b5f807f9e7b61f58c47dc699ac88507c4f5bb9f121c03808c5676a8078fe583e46497006001810154604051637702dcff60e01b81526004810188905260248101879052604481018690529192506001600160a01b031690637702dcff906064016020604051808303815f875af1158015610762573d5f5f3e3d5ffd5b505050506040513d601f19601f820116820180604052508101906107869190610ada565b95945050505050565b5f5f82156107a25750600160f81b6107a5565b505f5b7f9e7b61f58c47dc699ac88507c4f5bb9f121c03808c5676a8078fe583e4649701546040516303056db360e31b815260048101879052602481018690526001600160f81b0319831660448201527f9e7b61f58c47dc699ac88507c4f5bb9f121c03808c5676a8078fe583e4649700916001600160a01b03169063182b6d98906064016105cc565b5f7f9e7b61f58c47dc699ac88507c4f5bb9f121c03808c5676a8078fe583e46497008054604051635ca4b5b160e11b8152600481018690526001600160a01b03858116602483015292935091169063b9496b62906044015f604051808303815f87803b15801561089a575f5ffd5b505af11580156108ac573d5f5f3e3d5ffd5b50505050505050565b5f5f82156108c85750600160f81b6108cb565b505f5b7f9e7b61f58c47dc699ac88507c4f5bb9f121c03808c5676a8078fe583e46497015460405163022f65e760e31b815260048101879052602481018690526001600160f81b0319831660448201527f9e7b61f58c47dc699ac88507c4f5bb9f121c03808c5676a8078fe583e4649700916001600160a01b03169063117b2f38906064016105cc565b80356001600160a01b0381168114610968575f5ffd5b919050565b5f6020828403121561097d575f5ffd5b6102fe82610952565b5f5f83601f840112610996575f5ffd5b50813567ffffffffffffffff8111156109ad575f5ffd5b6020830191508360208285010111156109c4575f5ffd5b9250929050565b5f5f5f5f606085870312156109de575f5ffd5b6109e785610952565b935060208501359250604085013567ffffffffffffffff811115610a09575f5ffd5b610a1587828801610986565b95989497509550505050565b5f5f5f60408486031215610a33575f5ffd5b83359250602084013567ffffffffffffffff811115610a50575f5ffd5b610a5c86828701610986565b9497909650939450505050565b60548110610a8557634e487b7160e01b5f52602160045260245ffd5b9052565b8481526001600160a01b0384166020820152608060408201525f8351806080840152806020860160a085015e5f60a0828501015260a0601f19601f8301168401019150506107866060830184610a69565b5f60208284031215610aea575f5ffd5b5051919050565b828152604081016102fe6020830184610a6956fea164736f6c634300081b000a",
  "linkReferences": {},
  "deployedLinkReferences": {}
}